:10094900010800010A00020B0009010900C100C1E8
:01095900019C
:10088C00D290C291D293C294D29212092E30000A05
:10089C00C290D293D291C294801530010AD290C2E8
:1008AC0093C291D2948008C290C293D291D294E513
:1008BC0008C39414401F200003300110E50AC394B0
:1008CC00055009B292050AE4F5088009C200C2017C
:0A08DC00D292E4F50A850CA080B367
:10092E00D2AFD2A9D2A8D2AA53890F4389F1758C1E
:0B093E003C758AB0D28CD288D28A228D
:03000B0002095B8C
:09095B00758C3C758AB005083268
:030003000208E60A
:1008E600C0E0C0D0D3E50C9400E50B940040102086
:1008F600000D20010AD200E50C150C7002150BD074
:04090600D0D0E0323B
:0300130002090AD5
:10090A00C0E0C0D0C3E50C9409E50B940050102058
:10091A00010D20000AD201050CE50C7002050BD06E
:04092A00D0D0E03217
:03000000020800F3
:0C080000787FE4F6D8FD758120020847DF
:10080C0002088CE493A3F8E493A34003F68001F26E
:10081C0008DFF48029E493A3F85407240CC8C333ED
:10082C00C4540F4420C8834004F456800146F6DFBC
:10083C00E4800B0102040810204080900949E47EFA
:10084C00019360BCA3FF543F30E509541FFEE493B1
:10085C00A360010ECF54C025E060A840B8E493A378
:10086C00FAE493A3F8E493A3C8C582C8CAC583CAA3
:10087C00F0A3C8C582C8CAC583CADFE9DEE780BE5B
:01095A00009C
:00000001FF
